{
	"_format": "hh-sol-artifact-1",
	"contractName": "Token",
	"sourceName": "contracts/TubbyShop.sol",
	"abi": [
		{
			"inputs": [],
			"stateMutability": "nonpayable",
			"type": "constructor"
		},
		{
			"anonymous": false,
			"inputs": [
				{
					"indexed": true,
					"internalType": "address",
					"name": "account",
					"type": "address"
				},
				{
					"indexed": true,
					"internalType": "address",
					"name": "operator",
					"type": "address"
				},
				{
					"indexed": false,
					"internalType": "bool",
					"name": "approved",
					"type": "bool"
				}
			],
			"name": "ApprovalForAll",
			"type": "event"
		},
		{
			"anonymous": false,
			"inputs": [
				{
					"indexed": true,
					"internalType": "address",
					"name": "previousOwner",
					"type": "address"
				},
				{
					"indexed": true,
					"internalType": "address",
					"name": "newOwner",
					"type": "address"
				}
			],
			"name": "OwnershipTransferred",
			"type": "event"
		},
		{
			"anonymous": false,
			"inputs": [
				{
					"indexed": true,
					"internalType": "address",
					"name": "operator",
					"type": "address"
				},
				{
					"indexed": true,
					"internalType": "address",
					"name": "from",
					"type": "address"
				},
				{
					"indexed": true,
					"internalType": "address",
					"name": "to",
					"type": "address"
				},
				{
					"indexed": false,
					"internalType": "uint256[]",
					"name": "ids",
					"type": "uint256[]"
				},
				{
					"indexed": false,
					"internalType": "uint256[]",
					"name": "values",
					"type": "uint256[]"
				}
			],
			"name": "TransferBatch",
			"type": "event"
		},
		{
			"anonymous": false,
			"inputs": [
				{
					"indexed": true,
					"internalType": "address",
					"name": "operator",
					"type": "address"
				},
				{
					"indexed": true,
					"internalType": "address",
					"name": "from",
					"type": "address"
				},
				{
					"indexed": true,
					"internalType": "address",
					"name": "to",
					"type": "address"
				},
				{
					"indexed": false,
					"internalType": "uint256",
					"name": "id",
					"type": "uint256"
				},
				{
					"indexed": false,
					"internalType": "uint256",
					"name": "value",
					"type": "uint256"
				}
			],
			"name": "TransferSingle",
			"type": "event"
		},
		{
			"anonymous": false,
			"inputs": [
				{
					"indexed": false,
					"internalType": "string",
					"name": "value",
					"type": "string"
				},
				{
					"indexed": true,
					"internalType": "uint256",
					"name": "id",
					"type": "uint256"
				}
			],
			"name": "URI",
			"type": "event"
		},
		{
			"inputs": [],
			"name": "BLUE",
			"outputs": [
				{
					"internalType": "uint256",
					"name": "",
					"type": "uint256"
				}
			],
			"stateMutability": "view",
			"type": "function"
		},
		{
			"inputs": [],
			"name": "GREEN",
			"outputs": [
				{
					"internalType": "uint256",
					"name": "",
					"type": "uint256"
				}
			],
			"stateMutability": "view",
			"type": "function"
		},
		{
			"inputs": [],
			"name": "PURPLE",
			"outputs": [
				{
					"internalType": "uint256",
					"name": "",
					"type": "uint256"
				}
			],
			"stateMutability": "view",
			"type": "function"
		},
		{
			"inputs": [],
			"name": "RED",
			"outputs": [
				{
					"internalType": "uint256",
					"name": "",
					"type": "uint256"
				}
			],
			"stateMutability": "view",
			"type": "function"
		},
		{
			"inputs": [
				{
					"internalType": "address",
					"name": "account",
					"type": "address"
				},
				{
					"internalType": "uint256",
					"name": "id",
					"type": "uint256"
				}
			],
			"name": "balanceOf",
			"outputs": [
				{
					"internalType": "uint256",
					"name": "",
					"type": "uint256"
				}
			],
			"stateMutability": "view",
			"type": "function"
		},
		{
			"inputs": [
				{
					"internalType": "address[]",
					"name": "accounts",
					"type": "address[]"
				},
				{
					"internalType": "uint256[]",
					"name": "ids",
					"type": "uint256[]"
				}
			],
			"name": "balanceOfBatch",
			"outputs": [
				{
					"internalType": "uint256[]",
					"name": "",
					"type": "uint256[]"
				}
			],
			"stateMutability": "view",
			"type": "function"
		},
		{
			"inputs": [
				{
					"internalType": "uint256",
					"name": "id",
					"type": "uint256"
				}
			],
			"name": "exists",
			"outputs": [
				{
					"internalType": "bool",
					"name": "",
					"type": "bool"
				}
			],
			"stateMutability": "view",
			"type": "function"
		},
		{
			"inputs": [
				{
					"internalType": "address",
					"name": "account",
					"type": "address"
				},
				{
					"internalType": "address",
					"name": "operator",
					"type": "address"
				}
			],
			"name": "isApprovedForAll",
			"outputs": [
				{
					"internalType": "bool",
					"name": "",
					"type": "bool"
				}
			],
			"stateMutability": "view",
			"type": "function"
		},
		{
			"inputs": [
				{
					"internalType": "address",
					"name": "account",
					"type": "address"
				},
				{
					"internalType": "uint256",
					"name": "id",
					"type": "uint256"
				},
				{
					"internalType": "uint256",
					"name": "amount",
					"type": "uint256"
				},
				{
					"internalType": "bytes",
					"name": "data",
					"type": "bytes"
				}
			],
			"name": "mint",
			"outputs": [],
			"stateMutability": "payable",
			"type": "function"
		},
		{
			"inputs": [
				{
					"internalType": "address",
					"name": "to",
					"type": "address"
				},
				{
					"internalType": "uint256[]",
					"name": "ids",
					"type": "uint256[]"
				},
				{
					"internalType": "uint256[]",
					"name": "amounts",
					"type": "uint256[]"
				},
				{
					"internalType": "bytes",
					"name": "data",
					"type": "bytes"
				}
			],
			"name": "mintBatch",
			"outputs": [],
			"stateMutability": "nonpayable",
			"type": "function"
		},
		{
			"inputs": [],
			"name": "owner",
			"outputs": [
				{
					"internalType": "address",
					"name": "",
					"type": "address"
				}
			],
			"stateMutability": "view",
			"type": "function"
		},
		{
			"inputs": [],
			"name": "price",
			"outputs": [
				{
					"internalType": "uint256",
					"name": "",
					"type": "uint256"
				}
			],
			"stateMutability": "view",
			"type": "function"
		},
		{
			"inputs": [],
			"name": "renounceOwnership",
			"outputs": [],
			"stateMutability": "nonpayable",
			"type": "function"
		},
		{
			"inputs": [
				{
					"internalType": "address",
					"name": "from",
					"type": "address"
				},
				{
					"internalType": "address",
					"name": "to",
					"type": "address"
				},
				{
					"internalType": "uint256[]",
					"name": "ids",
					"type": "uint256[]"
				},
				{
					"internalType": "uint256[]",
					"name": "amounts",
					"type": "uint256[]"
				},
				{
					"internalType": "bytes",
					"name": "data",
					"type": "bytes"
				}
			],
			"name": "safeBatchTransferFrom",
			"outputs": [],
			"stateMutability": "nonpayable",
			"type": "function"
		},
		{
			"inputs": [
				{
					"internalType": "address",
					"name": "from",
					"type": "address"
				},
				{
					"internalType": "address",
					"name": "to",
					"type": "address"
				},
				{
					"internalType": "uint256",
					"name": "id",
					"type": "uint256"
				},
				{
					"internalType": "uint256",
					"name": "amount",
					"type": "uint256"
				},
				{
					"internalType": "bytes",
					"name": "data",
					"type": "bytes"
				}
			],
			"name": "safeTransferFrom",
			"outputs": [],
			"stateMutability": "nonpayable",
			"type": "function"
		},
		{
			"inputs": [
				{
					"internalType": "address",
					"name": "operator",
					"type": "address"
				},
				{
					"internalType": "bool",
					"name": "approved",
					"type": "bool"
				}
			],
			"name": "setApprovalForAll",
			"outputs": [],
			"stateMutability": "nonpayable",
			"type": "function"
		},
		{
			"inputs": [
				{
					"internalType": "string",
					"name": "newuri",
					"type": "string"
				}
			],
			"name": "setURI",
			"outputs": [],
			"stateMutability": "nonpayable",
			"type": "function"
		},
		{
			"inputs": [
				{
					"internalType": "bytes4",
					"name": "interfaceId",
					"type": "bytes4"
				}
			],
			"name": "supportsInterface",
			"outputs": [
				{
					"internalType": "bool",
					"name": "",
					"type": "bool"
				}
			],
			"stateMutability": "view",
			"type": "function"
		},
		{
			"inputs": [
				{
					"internalType": "uint256",
					"name": "id",
					"type": "uint256"
				}
			],
			"name": "totalSupply",
			"outputs": [
				{
					"internalType": "uint256",
					"name": "",
					"type": "uint256"
				}
			],
			"stateMutability": "view",
			"type": "function"
		},
		{
			"inputs": [
				{
					"internalType": "address",
					"name": "newOwner",
					"type": "address"
				}
			],
			"name": "transferOwnership",
			"outputs": [],
			"stateMutability": "nonpayable",
			"type": "function"
		},
		{
			"inputs": [
				{
					"internalType": "uint256",
					"name": "",
					"type": "uint256"
				}
			],
			"name": "uri",
			"outputs": [
				{
					"internalType": "string",
					"name": "",
					"type": "string"
				}
			],
			"stateMutability": "view",
			"type": "function"
		},
		{
			"inputs": [
				{
					"internalType": "address",
					"name": "_tokenContract",
					"type": "address"
				},
				{
					"internalType": "uint256",
					"name": "_amount",
					"type": "uint256"
				}
			],
			"name": "withdrawToken",
			"outputs": [],
			"stateMutability": "nonpayable",
			"type": "function"
		}
	],
	"bytecode": "0x6080604052662386f26fc100006005553480156200001c57600080fd5b506040518060400160405280600381526020017f596573000000000000000000000000000000000000000000000000000000000081525062000064816200008b60201b60201c565b506200008562000079620000a760201b60201c565b620000af60201b60201c565b6200028a565b8060029080519060200190620000a392919062000175565b5050565b600033905090565b6000600360009054906101000a900473ffffffffffffffffffffffffffffffffffffffff16905081600360006101000a81548173ffffffffffffffffffffffffffffffffffffffff021916908373ffffffffffffffffffffffffffffffffffffffff1602179055508173ffffffffffffffffffffffffffffffffffffffff168173ffffffffffffffffffffffffffffffffffffffff167f8be0079c531659141344cd1fd0a4f28419497f9722a3daafe3b4186f6b6457e060405160405180910390a35050565b828054620001839062000225565b90600052602060002090601f016020900481019282620001a75760008555620001f3565b82601f10620001c257805160ff1916838001178555620001f3565b82800160010185558215620001f3579182015b82811115620001f2578251825591602001919060010190620001d5565b5b50905062000202919062000206565b5090565b5b808211156200022157600081600090555060010162000207565b5090565b600060028204905060018216806200023e57607f821691505b602082108114156200025557620002546200025b565b5b50919050565b7f4e487b7100000000000000000000000000000000000000000000000000000000600052602260045260246000fd5b613b74806200029a6000396000f3fe6080604052600436106101345760003560e01c8063731133e9116100ab578063a22cb4651161006f578063a22cb46514610418578063bd85b03914610441578063c011ff641461047e578063e985e9c5146104a9578063f242432a146104e6578063f2fde38b1461050f57610134565b8063731133e91461035257806378ec96a01461036e5780638da5cb5b146103995780639e281a98146103c4578063a035b1fe146103ed57610134565b80631f7fdffa116100fd5780631f7fdffa146102445780632eb2c2d61461026d57806336d18b67146102965780634e1273f4146102c15780634f558e79146102fe578063715018a61461033b57610134565b8062fdd58e1461013957806301ffc9a71461017657806302724a6c146101b357806302fe5305146101de5780630e89341c14610207575b600080fd5b34801561014557600080fd5b50610160600480360381019061015b9190612903565b610538565b60405161016d91906131b8565b60405180910390f35b34801561018257600080fd5b5061019d60048036038101906101989190612a4f565b610601565b6040516101aa9190612f9b565b60405180910390f35b3480156101bf57600080fd5b506101c86106e3565b6040516101d591906131b8565b60405180910390f35b3480156101ea57600080fd5b5061020560048036038101906102009190612aa1565b6106e8565b005b34801561021357600080fd5b5061022e60048036038101906102299190612ae2565b610770565b60405161023b9190612fb6565b60405180910390f35b34801561025057600080fd5b5061026b6004803603810190610266919061281c565b610804565b005b34801561027957600080fd5b50610294600480360381019061028f91906126ce565b610892565b005b3480156102a257600080fd5b506102ab610933565b6040516102b891906131b8565b60405180910390f35b3480156102cd57600080fd5b506102e860048036038101906102e391906129ba565b610938565b6040516102f59190612f42565b60405180910390f35b34801561030a57600080fd5b5061032560048036038101906103209190612ae2565b610ae9565b6040516103329190612f9b565b60405180910390f35b34801561034757600080fd5b50610350610afd565b005b61036c6004803603810190610367919061293f565b610b85565b005b34801561037a57600080fd5b50610383610be0565b60405161039091906131b8565b60405180910390f35b3480156103a557600080fd5b506103ae610be5565b6040516103bb9190612e3c565b60405180910390f35b3480156103d057600080fd5b506103eb60048036038101906103e69190612903565b610c0f565b005b3480156103f957600080fd5b50610402610ca7565b60405161040f91906131b8565b60405180910390f35b34801561042457600080fd5b5061043f600480360381019061043a91906128c7565b610cad565b005b34801561044d57600080fd5b5061046860048036038101906104639190612ae2565b610cc3565b60405161047591906131b8565b60405180910390f35b34801561048a57600080fd5b50610493610ce0565b6040516104a091906131b8565b60405180910390f35b3480156104b557600080fd5b506104d060048036038101906104cb9190612692565b610ce5565b6040516104dd9190612f9b565b60405180910390f35b3480156104f257600080fd5b5061050d6004803603810190610508919061278d565b610d79565b005b34801561051b57600080fd5b5061053660048036038101906105319190612669565b610e1a565b005b60008073ffffffffffffffffffffffffffffffffffffffff168373ffffffffffffffffffffffffffffffffffffffff1614156105a9576040517f08c379a00000000000000000000000000000000000000000000000000000000081526004016105a090613018565b60405180910390fd5b60008083815260200190815260200160002060008473ffffffffffffffffffffffffffffffffffffffff1673ffffffffffffffffffffffffffffffffffffffff16815260200190815260200160002054905092915050565b60007fd9b67a26000000000000000000000000000000000000000000000000000000007bffffffffffffffffffffffffffffffffffffffffffffffffffffffff1916827bffffffffffffffffffffffffffffffffffffffffffffffffffffffff191614806106cc57507f0e89341c000000000000000000000000000000000000000000000000000000007bffffffffffffffffffffffffffffffffffffffffffffffffffffffff1916827bffffffffffffffffffffffffffffffffffffffffffffffffffffffff1916145b806106dc57506106db82610f12565b5b9050919050565b600281565b6106f0610f7c565b73ffffffffffffffffffffffffffffffffffffffff1661070e610be5565b73ffffffffffffffffffffffffffffffffffffffff1614610764576040517f08c379a000000000000000000000000000000000000000000000000000000000815260040161075b906130f8565b60405180910390fd5b61076d81610f84565b50565b60606002805461077f90613458565b80601f01602080910402602001604051908101604052809291908181526020018280546107ab90613458565b80156107f85780601f106107cd576101008083540402835291602001916107f8565b820191906000526020600020905b8154815290600101906020018083116107db57829003601f168201915b50505050509050919050565b61080c610f7c565b73ffffffffffffffffffffffffffffffffffffffff1661082a610be5565b73ffffffffffffffffffffffffffffffffffffffff1614610880576040517f08c379a0000000000000000000000000000000000000000000000000000000008152600401610877906130f8565b60405180910390fd5b61088c84848484610f9e565b50505050565b61089a610f7c565b73ffffffffffffffffffffffffffffffffffffffff168573ffffffffffffffffffffffffffffffffffffffff1614806108e057506108df856108da610f7c565b610ce5565b5b61091f576040517f08c379a0000000000000000000000000000000000000000000000000000000008152600401610916906130b8565b60405180910390fd5b61092c8585858585611217565b5050505050565b600081565b6060815183511461097e576040517f08c379a000000000000000000000000000000000000000000000000000000000815260040161097590613158565b60405180910390fd5b6000835167ffffffffffffffff8111156109c1577f4e487b7100000000000000000000000000000000000000000000000000000000600052604160045260246000fd5b6040519080825280602002602001820160405280156109ef5781602001602082028036833780820191505090505b50905060005b8451811015610ade57610a88858281518110610a3a577f4e487b7100000000000000000000000000000000000000000000000000000000600052603260045260246000fd5b6020026020010151858381518110610a7b577f4e487b7100000000000000000000000000000000000000000000000000000000600052603260045260246000fd5b6020026020010151610538565b828281518110610ac1577f4e487b7100000000000000000000000000000000000000000000000000000000600052603260045260246000fd5b60200260200101818152505080610ad7906134bb565b90506109f5565b508091505092915050565b600080610af583610cc3565b119050919050565b610b05610f7c565b73ffffffffffffffffffffffffffffffffffffffff16610b23610be5565b73ffffffffffffffffffffffffffffffffffffffff1614610b79576040517f08c379a0000000000000000000000000000000000000000000000000000000008152600401610b70906130f8565b60405180910390fd5b610b836000611585565b565b610b918484848461164b565b662386f26fc100003410610bda576040517f08c379a0000000000000000000000000000000000000000000000000000000008152600401610bd190613078565b60405180910390fd5b50505050565b600381565b6000600360009054906101000a900473ffffffffffffffffffffffffffffffffffffffff16905090565b60008290508073ffffffffffffffffffffffffffffffffffffffff1663a9059cbb33846040518363ffffffff1660e01b8152600401610c4f929190612f19565b602060405180830381600087803b158015610c6957600080fd5b505af1158015610c7d573d6000803e3d6000fd5b505050506040513d601f19601f82011682018060405250810190610ca19190612a26565b50505050565b60055481565b610cbf610cb8610f7c565b83836117fc565b5050565b600060046000838152602001908152602001600020549050919050565b600181565b6000600160008473ffffffffffffffffffffffffffffffffffffffff1673ffffffffffffffffffffffffffffffffffffffff16815260200190815260200160002060008373ffffffffffffffffffffffffffffffffffffffff1673ffffffffffffffffffffffffffffffffffffffff16815260200190815260200160002060009054906101000a900460ff16905092915050565b610d81610f7c565b73ffffffffffffffffffffffffffffffffffffffff168573ffffffffffffffffffffffffffffffffffffffff161480610dc75750610dc685610dc1610f7c565b610ce5565b5b610e06576040517f08c379a0000000000000000000000000000000000000000000000000000000008152600401610dfd90613058565b60405180910390fd5b610e138585858585611969565b5050505050565b610e22610f7c565b73ffffffffffffffffffffffffffffffffffffffff16610e40610be5565b73ffffffffffffffffffffffffffffffffffffffff1614610e96576040517f08c379a0000000000000000000000000000000000000000000000000000000008152600401610e8d906130f8565b60405180910390fd5b600073ffffffffffffffffffffffffffffffffffffffff168173ffffffffffffffffffffffffffffffffffffffff161415610f06576040517f08c379a0000000000000000000000000000000000000000000000000000000008152600401610efd90613038565b60405180910390fd5b610f0f81611585565b50565b60007f01ffc9a7000000000000000000000000000000000000000000000000000000007bffffffffffffffffffffffffffffffffffffffffffffffffffffffff1916827bffffffffffffffffffffffffffffffffffffffffffffffffffffffff1916149050919050565b600033905090565b8060029080519060200190610f9a92919061234c565b5050565b600073ffffffffffffffffffffffffffffffffffffffff168473ffffffffffffffffffffffffffffffffffffffff16141561100e576040517f08c379a000000000000000000000000000000000000000000000000000000000815260040161100590613198565b60405180910390fd5b8151835114611052576040517f08c379a000000000000000000000000000000000000000000000000000000000815260040161104990613178565b60405180910390fd5b600061105c610f7c565b905061106d81600087878787611c05565b60005b8451811015611172578381815181106110b2577f4e487b7100000000000000000000000000000000000000000000000000000000600052603260045260246000fd5b60200260200101516000808784815181106110f6577f4e487b7100000000000000000000000000000000000000000000000000000000600052603260045260246000fd5b6020026020010151815260200190815260200160002060008873ffffffffffffffffffffffffffffffffffffffff1673ffffffffffffffffffffffffffffffffffffffff1681526020019081526020016000206000828254611158919061334c565b92505081905550808061116a906134bb565b915050611070565b508473ffffffffffffffffffffffffffffffffffffffff16600073ffffffffffffffffffffffffffffffffffffffff168273ffffffffffffffffffffffffffffffffffffffff167f4a39dc06d4c0dbc64b70af90fd698a233a518aa5d07e595d983b8c0526c8f7fb87876040516111ea929190612f64565b60405180910390a461120181600087878787611c1b565b61121081600087878787611c23565b5050505050565b815183511461125b576040517f08c379a000000000000000000000000000000000000000000000000000000000815260040161125290613178565b60405180910390fd5b600073ffffffffffffffffffffffffffffffffffffffff168473ffffffffffffffffffffffffffffffffffffffff1614156112cb576040517f08c379a00000000000000000000000000000000000000000000000000000000081526004016112c290613098565b60405180910390fd5b60006112d5610f7c565b90506112e5818787878787611c05565b60005b84518110156114e257600085828151811061132c577f4e487b7100000000000000000000000000000000000000000000000000000000600052603260045260246000fd5b602002602001015190506000858381518110611371577f4e487b7100000000000000000000000000000000000000000000000000000000600052603260045260246000fd5b60200260200101519050600080600084815260200190815260200160002060008b73ffffffffffffffffffffffffffffffffffffffff1673ffffffffffffffffffffffffffffffffffffffff16815260200190815260200160002054905081811015611412576040517f08c379a0000000000000000000000000000000000000000000000000000000008152600401611409906130d8565b60405180910390fd5b81810360008085815260200190815260200160002060008c73ffffffffffffffffffffffffffffffffffffffff1673ffffffffffffffffffffffffffffffffffffffff168152602001908152602001600020819055508160008085815260200190815260200160002060008b73ffffffffffffffffffffffffffffffffffffffff1673ffffffffffffffffffffffffffffffffffffffff16815260200190815260200160002060008282546114c7919061334c565b92505081905550505050806114db906134bb565b90506112e8565b508473ffffffffffffffffffffffffffffffffffffffff168673ffffffffffffffffffffffffffffffffffffffff168273ffffffffffffffffffffffffffffffffffffffff167f4a39dc06d4c0dbc64b70af90fd698a233a518aa5d07e595d983b8c0526c8f7fb8787604051611559929190612f64565b60405180910390a461156f818787878787611c1b565b61157d818787878787611c23565b505050505050565b6000600360009054906101000a900473ffffffffffffffffffffffffffffffffffffffff16905081600360006101000a81548173ffffffffffffffffffffffffffffffffffffffff021916908373ffffffffffffffffffffffffffffffffffffffff1602179055508173ffffffffffffffffffffffffffffffffffffffff168173ffffffffffffffffffffffffffffffffffffffff167f8be0079c531659141344cd1fd0a4f28419497f9722a3daafe3b4186f6b6457e060405160405180910390a35050565b600073ffffffffffffffffffffffffffffffffffffffff168473ffffffffffffffffffffffffffffffffffffffff1614156116bb576040517f08c379a00000000000000000000000000000000000000000000000000000000081526004016116b290613198565b60405180910390fd5b60006116c5610f7c565b905060006116d285611e0a565b905060006116df85611e0a565b90506116f083600089858589611c05565b8460008088815260200190815260200160002060008973ffffffffffffffffffffffffffffffffffffffff1673ffffffffffffffffffffffffffffffffffffffff168152602001908152602001600020600082825461174f919061334c565b925050819055508673ffffffffffffffffffffffffffffffffffffffff16600073ffffffffffffffffffffffffffffffffffffffff168473ffffffffffffffffffffffffffffffffffffffff167fc3d58168c5ae7397731d063d5bbf3d657854427343f4c083240f7aacaa2d0f6289896040516117cd9291906131d3565b60405180910390a46117e483600089858589611c1b565b6117f383600089898989611ed0565b50505050505050565b8173ffffffffffffffffffffffffffffffffffffffff168373ffffffffffffffffffffffffffffffffffffffff16141561186b576040517f08c379a000000000000000000000000000000000000000000000000000000000815260040161186290613138565b60405180910390fd5b80600160008573ffffffffffffffffffffffffffffffffffffffff1673ffffffffffffffffffffffffffffffffffffffff16815260200190815260200160002060008473ffffffffffffffffffffffffffffffffffffffff1673ffffffffffffffffffffffffffffffffffffffff16815260200190815260200160002060006101000a81548160ff0219169083151502179055508173ffffffffffffffffffffffffffffffffffffffff168373ffffffffffffffffffffffffffffffffffffffff167f17307eab39ab6107e8899845ad3d59bd9653f200f220920489ca2b5937696c318360405161195c9190612f9b565b60405180910390a3505050565b600073ffffffffffffffffffffffffffffffffffffffff168473ffffffffffffffffffffffffffffffffffffffff1614156119d9576040517f08c379a00000000000000000000000000000000000000000000000000000000081526004016119d090613098565b60405180910390fd5b60006119e3610f7c565b905060006119f085611e0a565b905060006119fd85611e0a565b9050611a0d838989858589611c05565b600080600088815260200190815260200160002060008a73ffffffffffffffffffffffffffffffffffffffff1673ffffffffffffffffffffffffffffffffffffffff16815260200190815260200160002054905085811015611aa4576040517f08c379a0000000000000000000000000000000000000000000000000000000008152600401611a9b906130d8565b60405180910390fd5b85810360008089815260200190815260200160002060008b73ffffffffffffffffffffffffffffffffffffffff1673ffffffffffffffffffffffffffffffffffffffff168152602001908152602001600020819055508560008089815260200190815260200160002060008a73ffffffffffffffffffffffffffffffffffffffff1673ffffffffffffffffffffffffffffffffffffffff1681526020019081526020016000206000828254611b59919061334c565b925050819055508773ffffffffffffffffffffffffffffffffffffffff168973ffffffffffffffffffffffffffffffffffffffff168573ffffffffffffffffffffffffffffffffffffffff167fc3d58168c5ae7397731d063d5bbf3d657854427343f4c083240f7aacaa2d0f628a8a604051611bd69291906131d3565b60405180910390a4611bec848a8a86868a611c1b565b611bfa848a8a8a8a8a611ed0565b505050505050505050565b611c138686868686866120b7565b505050505050565b505050505050565b611c428473ffffffffffffffffffffffffffffffffffffffff16612321565b15611e02578373ffffffffffffffffffffffffffffffffffffffff1663bc197c8187878686866040518663ffffffff1660e01b8152600401611c88959493929190612e57565b602060405180830381600087803b158015611ca257600080fd5b505af1925050508015611cd357506040513d601f19601f82011682018060405250810190611cd09190612a78565b60015b611d7957611cdf613591565b806308c379a01415611d3c5750611cf4613a4c565b80611cff5750611d3e565b806040517f08c379a0000000000000000000000000000000000000000000000000000000008152600401611d339190612fb6565b60405180910390fd5b505b6040517f08c379a0000000000000000000000000000000000000000000000000000000008152600401611d7090612fd8565b60405180910390fd5b63bc197c8160e01b7bffffffffffffffffffffffffffffffffffffffffffffffffffffffff1916817bffffffffffffffffffffffffffffffffffffffffffffffffffffffff191614611e00576040517f08c379a0000000000000000000000000000000000000000000000000000000008152600401611df790612ff8565b60405180910390fd5b505b505050505050565b60606000600167ffffffffffffffff811115611e4f577f4e487b7100000000000000000000000000000000000000000000000000000000600052604160045260246000fd5b604051908082528060200260200182016040528015611e7d5781602001602082028036833780820191505090505b5090508281600081518110611ebb577f4e487b7100000000000000000000000000000000000000000000000000000000600052603260045260246000fd5b60200260200101818152505080915050919050565b611eef8473ffffffffffffffffffffffffffffffffffffffff16612321565b156120af578373ffffffffffffffffffffffffffffffffffffffff1663f23a6e6187878686866040518663ffffffff1660e01b8152600401611f35959493929190612ebf565b602060405180830381600087803b158015611f4f57600080fd5b505af1925050508015611f8057506040513d601f19601f82011682018060405250810190611f7d9190612a78565b60015b61202657611f8c613591565b806308c379a01415611fe95750611fa1613a4c565b80611fac5750611feb565b806040517f08c379a0000000000000000000000000000000000000000000000000000000008152600401611fe09190612fb6565b60405180910390fd5b505b6040517f08c379a000000000000000000000000000000000000000000000000000000000815260040161201d90612fd8565b60405180910390fd5b63f23a6e6160e01b7bffffffffffffffffffffffffffffffffffffffffffffffffffffffff1916817bffffffffffffffffffffffffffffffffffffffffffffffffffffffff1916146120ad576040517f08c379a00000000000000000000000000000000000000000000000000000000081526004016120a490612ff8565b60405180910390fd5b505b505050505050565b6120c5868686868686612344565b600073ffffffffffffffffffffffffffffffffffffffff168573ffffffffffffffffffffffffffffffffffffffff1614156121c35760005b83518110156121c15782818151811061213f577f4e487b7100000000000000000000000000000000000000000000000000000000600052603260045260246000fd5b602002602001015160046000868481518110612184577f4e487b7100000000000000000000000000000000000000000000000000000000600052603260045260246000fd5b6020026020010151815260200190815260200160002060008282546121a9919061334c565b92505081905550806121ba906134bb565b90506120fd565b505b600073ffffffffffffffffffffffffffffffffffffffff168473ffffffffffffffffffffffffffffffffffffffff1614156123195760005b835181101561231757600084828151811061223f577f4e487b7100000000000000000000000000000000000000000000000000000000600052603260045260246000fd5b602002602001015190506000848381518110612284577f4e487b7100000000000000000000000000000000000000000000000000000000600052603260045260246000fd5b60200260200101519050600060046000848152602001908152602001600020549050818110156122e9576040517f08c379a00000000000000000000000000000000000000000000000000000000081526004016122e090613118565b60405180910390fd5b818103600460008581526020019081526020016000208190555050505080612310906134bb565b90506121fb565b505b505050505050565b6000808273ffffffffffffffffffffffffffffffffffffffff163b119050919050565b505050505050565b82805461235890613458565b90600052602060002090601f01602090048101928261237a57600085556123c1565b82601f1061239357805160ff19168380011785556123c1565b828001600101855582156123c1579182015b828111156123c05782518255916020019190600101906123a5565b5b5090506123ce91906123d2565b5090565b5b808211156123eb5760008160009055506001016123d3565b5090565b60006124026123fd84613221565b6131fc565b9050808382526020820190508285602086028201111561242157600080fd5b60005b8581101561245157816124378882612543565b845260208401935060208301925050600181019050612424565b5050509392505050565b600061246e6124698461324d565b6131fc565b9050808382526020820190508285602086028201111561248d57600080fd5b60005b858110156124bd57816124a38882612654565b845260208401935060208301925050600181019050612490565b5050509392505050565b60006124da6124d584613279565b6131fc565b9050828152602081018484840111156124f257600080fd5b6124fd848285613416565b509392505050565b6000612518612513846132aa565b6131fc565b90508281526020810184848401111561253057600080fd5b61253b848285613416565b509392505050565b60008135905061255281613ae2565b92915050565b600082601f83011261256957600080fd5b81356125798482602086016123ef565b91505092915050565b600082601f83011261259357600080fd5b81356125a384826020860161245b565b91505092915050565b6000813590506125bb81613af9565b92915050565b6000815190506125d081613af9565b92915050565b6000813590506125e581613b10565b92915050565b6000815190506125fa81613b10565b92915050565b600082601f83011261261157600080fd5b81356126218482602086016124c7565b91505092915050565b600082601f83011261263b57600080fd5b813561264b848260208601612505565b91505092915050565b60008135905061266381613b27565b92915050565b60006020828403121561267b57600080fd5b600061268984828501612543565b91505092915050565b600080604083850312156126a557600080fd5b60006126b385828601612543565b92505060206126c485828601612543565b9150509250929050565b600080600080600060a086880312156126e657600080fd5b60006126f488828901612543565b955050602061270588828901612543565b945050604086013567ffffffffffffffff81111561272257600080fd5b61272e88828901612582565b935050606086013567ffffffffffffffff81111561274b57600080fd5b61275788828901612582565b925050608086013567ffffffffffffffff81111561277457600080fd5b61278088828901612600565b9150509295509295909350565b600080600080600060a086880312156127a557600080fd5b60006127b388828901612543565b95505060206127c488828901612543565b94505060406127d588828901612654565b93505060606127e688828901612654565b925050608086013567ffffffffffffffff81111561280357600080fd5b61280f88828901612600565b9150509295509295909350565b6000806000806080858703121561283257600080fd5b600061284087828801612543565b945050602085013567ffffffffffffffff81111561285d57600080fd5b61286987828801612582565b935050604085013567ffffffffffffffff81111561288657600080fd5b61289287828801612582565b925050606085013567ffffffffffffffff8111156128af57600080fd5b6128bb87828801612600565b91505092959194509250565b600080604083850312156128da57600080fd5b60006128e885828601612543565b92505060206128f9858286016125ac565b9150509250929050565b6000806040838503121561291657600080fd5b600061292485828601612543565b925050602061293585828601612654565b9150509250929050565b6000806000806080858703121561295557600080fd5b600061296387828801612543565b945050602061297487828801612654565b935050604061298587828801612654565b925050606085013567ffffffffffffffff8111156129a257600080fd5b6129ae87828801612600565b91505092959194509250565b600080604083850312156129cd57600080fd5b600083013567ffffffffffffffff8111156129e757600080fd5b6129f385828601612558565b925050602083013567ffffffffffffffff811115612a1057600080fd5b612a1c85828601612582565b9150509250929050565b600060208284031215612a3857600080fd5b6000612a46848285016125c1565b91505092915050565b600060208284031215612a6157600080fd5b6000612a6f848285016125d6565b91505092915050565b600060208284031215612a8a57600080fd5b6000612a98848285016125eb565b91505092915050565b600060208284031215612ab357600080fd5b600082013567ffffffffffffffff811115612acd57600080fd5b612ad98482850161262a565b91505092915050565b600060208284031215612af457600080fd5b6000612b0284828501612654565b91505092915050565b6000612b178383612e1e565b60208301905092915050565b612b2c816133a2565b82525050565b6000612b3d826132eb565b612b478185613319565b9350612b52836132db565b8060005b83811015612b83578151612b6a8882612b0b565b9750612b758361330c565b925050600181019050612b56565b5085935050505092915050565b612b99816133b4565b82525050565b6000612baa826132f6565b612bb4818561332a565b9350612bc4818560208601613425565b612bcd816135b3565b840191505092915050565b6000612be382613301565b612bed818561333b565b9350612bfd818560208601613425565b612c06816135b3565b840191505092915050565b6000612c1e60348361333b565b9150612c29826135d1565b604082019050919050565b6000612c4160288361333b565b9150612c4c82613620565b604082019050919050565b6000612c64602b8361333b565b9150612c6f8261366f565b604082019050919050565b6000612c8760268361333b565b9150612c92826136be565b604082019050919050565b6000612caa60298361333b565b9150612cb58261370d565b604082019050919050565b6000612ccd60218361333b565b9150612cd88261375c565b604082019050919050565b6000612cf060258361333b565b9150612cfb826137ab565b604082019050919050565b6000612d1360328361333b565b9150612d1e826137fa565b604082019050919050565b6000612d36602a8361333b565b9150612d4182613849565b604082019050919050565b6000612d5960208361333b565b9150612d6482613898565b602082019050919050565b6000612d7c60288361333b565b9150612d87826138c1565b604082019050919050565b6000612d9f60298361333b565b9150612daa82613910565b604082019050919050565b6000612dc260298361333b565b9150612dcd8261395f565b604082019050919050565b6000612de560288361333b565b9150612df0826139ae565b604082019050919050565b6000612e0860218361333b565b9150612e13826139fd565b604082019050919050565b612e278161340c565b82525050565b612e368161340c565b82525050565b6000602082019050612e516000830184612b23565b92915050565b600060a082019050612e6c6000830188612b23565b612e796020830187612b23565b8181036040830152612e8b8186612b32565b90508181036060830152612e9f8185612b32565b90508181036080830152612eb38184612b9f565b90509695505050505050565b600060a082019050612ed46000830188612b23565b612ee16020830187612b23565b612eee6040830186612e2d565b612efb6060830185612e2d565b8181036080830152612f0d8184612b9f565b90509695505050505050565b6000604082019050612f2e6000830185612b23565b612f3b6020830184612e2d565b9392505050565b60006020820190508181036000830152612f5c8184612b32565b905092915050565b60006040820190508181036000830152612f7e8185612b32565b90508181036020830152612f928184612b32565b90509392505050565b6000602082019050612fb06000830184612b90565b92915050565b60006020820190508181036000830152612fd08184612bd8565b905092915050565b60006020820190508181036000830152612ff181612c11565b9050919050565b6000602082019050818103600083015261301181612c34565b9050919050565b6000602082019050818103600083015261303181612c57565b9050919050565b6000602082019050818103600083015261305181612c7a565b9050919050565b6000602082019050818103600083015261307181612c9d565b9050919050565b6000602082019050818103600083015261309181612cc0565b9050919050565b600060208201905081810360008301526130b181612ce3565b9050919050565b600060208201905081810360008301526130d181612d06565b9050919050565b600060208201905081810360008301526130f181612d29565b9050919050565b6000602082019050818103600083015261311181612d4c565b9050919050565b6000602082019050818103600083015261313181612d6f565b9050919050565b6000602082019050818103600083015261315181612d92565b9050919050565b6000602082019050818103600083015261317181612db5565b9050919050565b6000602082019050818103600083015261319181612dd8565b9050919050565b600060208201905081810360008301526131b181612dfb565b9050919050565b60006020820190506131cd6000830184612e2d565b92915050565b60006040820190506131e86000830185612e2d565b6131f56020830184612e2d565b9392505050565b6000613206613217565b9050613212828261348a565b919050565b6000604051905090565b600067ffffffffffffffff82111561323c5761323b613562565b5b602082029050602081019050919050565b600067ffffffffffffffff82111561326857613267613562565b5b602082029050602081019050919050565b600067ffffffffffffffff82111561329457613293613562565b5b61329d826135b3565b9050602081019050919050565b600067ffffffffffffffff8211156132c5576132c4613562565b5b6132ce826135b3565b9050602081019050919050565b6000819050602082019050919050565b600081519050919050565b600081519050919050565b600081519050919050565b6000602082019050919050565b600082825260208201905092915050565b600082825260208201905092915050565b600082825260208201905092915050565b60006133578261340c565b91506133628361340c565b9250827fffffffffffffffffffffffffffffffffffffffffffffffffffffffffffffffff0382111561339757613396613504565b5b828201905092915050565b60006133ad826133ec565b9050919050565b60008115159050919050565b60007fffffffff0000000000000000000000000000000000000000000000000000000082169050919050565b600073ffffffffffffffffffffffffffffffffffffffff82169050919050565b6000819050919050565b82818337600083830152505050565b60005b83811015613443578082015181840152602081019050613428565b83811115613452576000848401525b50505050565b6000600282049050600182168061347057607f821691505b6020821081141561348457613483613533565b5b50919050565b613493826135b3565b810181811067ffffffffffffffff821117156134b2576134b1613562565b5b80604052505050565b60006134c68261340c565b91507fffffffffffffffffffffffffffffffffffffffffffffffffffffffffffffffff8214156134f9576134f8613504565b5b600182019050919050565b7f4e487b7100000000000000000000000000000000000000000000000000000000600052601160045260246000fd5b7f4e487b7100000000000000000000000000000000000000000000000000000000600052602260045260246000fd5b7f4e487b7100000000000000000000000000000000000000000000000000000000600052604160045260246000fd5b600060033d11156135b05760046000803e6135ad6000516135c4565b90505b90565b6000601f19601f8301169050919050565b60008160e01c9050919050565b7f455243313135353a207472616e7366657220746f206e6f6e204552433131353560008201527f526563656976657220696d706c656d656e746572000000000000000000000000602082015250565b7f455243313135353a204552433131353552656365697665722072656a6563746560008201527f6420746f6b656e73000000000000000000000000000000000000000000000000602082015250565b7f455243313135353a2062616c616e636520717565727920666f7220746865207a60008201527f65726f2061646472657373000000000000000000000000000000000000000000602082015250565b7f4f776e61626c653a206e6577206f776e657220697320746865207a65726f206160008201527f6464726573730000000000000000000000000000000000000000000000000000602082015250565b7f455243313135353a2063616c6c6572206973206e6f74206f776e6572206e6f7260008201527f20617070726f7665640000000000000000000000000000000000000000000000602082015250565b7f4e6f7420656e6f756768204554482073656e743a20636865636b20707269636560008201527f2e00000000000000000000000000000000000000000000000000000000000000602082015250565b7f455243313135353a207472616e7366657220746f20746865207a65726f20616460008201527f6472657373000000000000000000000000000000000000000000000000000000602082015250565b7f455243313135353a207472616e736665722063616c6c6572206973206e6f742060008201527f6f776e6572206e6f7220617070726f7665640000000000000000000000000000602082015250565b7f455243313135353a20696e73756666696369656e742062616c616e636520666f60008201527f72207472616e7366657200000000000000000000000000000000000000000000602082015250565b7f4f776e61626c653a2063616c6c6572206973206e6f7420746865206f776e6572600082015250565b7f455243313135353a206275726e20616d6f756e74206578636565647320746f7460008201527f616c537570706c79000000000000000000000000000000000000000000000000602082015250565b7f455243313135353a2073657474696e6720617070726f76616c2073746174757360008201527f20666f722073656c660000000000000000000000000000000000000000000000602082015250565b7f455243313135353a206163636f756e747320616e6420696473206c656e67746860008201527f206d69736d617463680000000000000000000000000000000000000000000000602082015250565b7f455243313135353a2069647320616e6420616d6f756e7473206c656e6774682060008201527f6d69736d61746368000000000000000000000000000000000000000000000000602082015250565b7f455243313135353a206d696e7420746f20746865207a65726f2061646472657360008201527f7300000000000000000000000000000000000000000000000000000000000000602082015250565b600060443d1015613a5c57613adf565b613a64613217565b60043d036004823e80513d602482011167ffffffffffffffff82111715613a8c575050613adf565b808201805167ffffffffffffffff811115613aaa5750505050613adf565b80602083010160043d038501811115613ac7575050505050613adf565b613ad68260200185018661348a565b82955050505050505b90565b613aeb816133a2565b8114613af657600080fd5b50565b613b02816133b4565b8114613b0d57600080fd5b50565b613b19816133c0565b8114613b2457600080fd5b50565b613b308161340c565b8114613b3b57600080fd5b5056fea264697066735822122049727a0890a4b0500082fb0ed8c21e57f8eb51da54bf7a2c2ad3fedde9ee695b64736f6c63430008040033",
	"linkReferences": {},
	"deployedLinkReferences": {}
}